:100000000C942A000C9447000C9447000C94470071
:100010000C9447000C9447000C94BA030C946803AA
:100020000C9491030C943F030C9447000C944700EC
:100030000C9447000C9447000C9447000C94470024
:100040000C9447000C9447000C9447000C94470014
:100050000C94470011241FBECFE5D8E0DEBFCDBF12
:1000600010E0A0E6B0E0EAECF7E002C005900D92E7
:10007000A43AB107D9F720E0A4EAB0E001C01D928C
:10008000AD3AB207E1F70E9411010C94E3030C941E
:100090000000CF93CCE061E08C2F0E941302CF5F71
:1000A000C031C9F7CF910895CF93C82F60E081E0A8
:1000B0000E9413026C2F661F6627661F86E00E944F
:1000C0001302C6FB662760F985E00E941302C5FB98
:1000D000662760F984E00E941302C4FB662760F97A
:1000E00083E00E94130261E082E00E9413028FEC21
:1000F00097E00197F1F700C0000060E082E00E9405
:1001000013028FEC97E00197F1F700C00000C3FBEA
:10011000662760F986E00E941302C2FB662760F939
:1001200085E00E941302C1FB662760F984E00E940B
:1001300013026C2F617083E00E94130261E082E081
:100140000E9413028FEC97E00197F1F700C00000C6
:1001500060E082E00E9413028FEC97E00197F1F7D4
:1001600000C00000CF9108952FE788E391E021506F
:1001700080409040E1F700C0000082E00E945400FF
:1001800088E20E9454008CE00E94540081E00E94AA
:1001900054008FEC97E00197F1F700C0000086E073
:1001A0000C94540062E083E00E94920282E00E947C
:1001B000B20262E083E00E94CD0282E00E94090365
:1001C00082E00E9424038FEF90E097BD86BD0895E2
:1001D000E091A400F0E0CF01880F991FE80FF91F0C
:1001E000E05AFF4F808190E099BD88BD818190E009
:1001F0009BBD8ABD82818CBF8091A4008F5F80935C
:10020000A4002FEF8EE994E2215080409040E1F766
:1002100000C000008091A4008C3011F41092A40062
:1002200008950E9435010E94B4000E94490066E0D2
:1002300081E00E9420010E94D2000E94E800FDCFD0
:10024000813041F028F0823039F43E9A3F9A04C060
:100250003E9801C03E9A3F9886B1887F86B986B1A4
:100260006770682B66B9379A0895E4E8F0E040E0DB
:1002700081E090E05191342F369536953695242FB4
:100280002770513009F443C020F0523009F482C085
:10029000C5C0323001F1333061F1313071F05AB301
:1002A000BC0102C0660F771F2A95E2F79B01352F2C
:1002B000322B3ABB3BB320953DC057B3BC0102C0C3
:1002C000660F771F2A95E2F79B01352F322B37BB3C
:1002D00038B320953EC054B3BC0102C0660F771FEF
:1002E0002A95E2F79B01352F322B34BB35B320958D
:1002F0003FC051B3BC0102C0660F771F2A95E2F7D9
:100300009B01352F322B31BB32B3209541C03230A7
:1003100011F1333081F1313079F05AB3BC0102C0B0
:10032000660F771F2A95E2F79B012095352F322320
:100330003ABB3BB3232342C057B3BC0102C0660F94
:10034000771F2A95E2F79B012095352F322337BB83
:1003500038B3232343C054B3BC0102C0660F771FD8
:100360002A95E2F79B012095352F322334BB35B314
:10037000232325BB53C051B3BC0102C0660F771FB6
:100380002A95E2F79B012095352F322331BB32B3FA
:10039000232343C0323021F1333089F1313081F0F1
:1003A0005AB3BC0102C0660F771F2A95E2F79B0182
:1003B000362F309535233ABB3BB3232B2BBB2EC0B6
:1003C00057B3BC0102C0660F771F2A95E2F79B0165
:1003D000362F3095352337BB38B3232B28BB1EC0AF
:1003E00054B3BC0102C0660F771F2A95E2F79B0148
:1003F000362F3095352334BB35B3232BBACF51B3C9
:10040000BC0102C0660F771F2A95E2F79B01362FC9
:100410003095352331BB32B3232B22BB4F5F4032A3
:1004200009F028CF0895982F969596959695877000
:100430006130C1F5913091F028F09230D9F09330CD
:1004400029F108954BB321E030E0B90102C0660FF5
:10045000771F8A95E2F7CB01842B38C048B321E09F
:1004600030E0B90102C0660F771F8A95E2F7CB0131
:10047000842B3AC045B321E030E0B90102C0660FD9
:10048000771F8A95E2F7CB01842B3CC042B321E071
:1004900030E0B90102C0660F771F8A95E2F7CB0101
:1004A000842B3EC09130A1F028F09230F9F09330C7
:1004B00059F108954BB321E030E0B90102C0660F55
:1004C000771F8A95E2F7CB01809584238BBB089533
:1004D00048B321E030E0B90102C0660F771F8A956A
:1004E000E2F7CB018095842388BB089545B321E0D2
:1004F00030E0B90102C0660F771F8A95E2F7CB01A1
:100500008095842385BB089542B321E030E0B90192
:1005100002C0660F771F8A95E2F7CB01809584238E
:1005200082BB0895813059F038F0823071F0833009
:1005300091F483B780640BC083B78F7B02C083B70D
:10054000806483BF83B7877F05C083B78F7B83BFFA
:1005500083B7886083BF83B7887F83BF83B7682BE7
:1005600063BF0895813049F028F0823061F0833014
:1005700069F0089583B78F7E02C083B7806183BF1F
:1005800083B78F7D08C083B78F7E02C083B7806139
:1005900083BF83B7806283BF08958230D9F050F45F
:1005A000882379F0813071F58FB58E7F8FBD8FB53F
:1005B0008D7F21C08330D1F0843021F58FB58160EB
:1005C00017C08FB58E7F8FBD8FB58D7F8FBD8EB5D8
:1005D000877F08C08FB58E7F8FBD8FB58D7F8FBD14
:1005E0008EB588608EBD8EB58F7E0BC08FB58E7F29
:1005F0008FBD8FB582608FBD8EB588608EBD8EB584
:1006000080618EBD8EB5887F8EBD8EB5682B6EBD28
:100610000895813049F028F0823061F0833069F02C
:1006200008958FB58F7B02C08FB580648FBD8FB565
:100630008F7708C08FB58F7B02C08FB580648FBD68
:100640008FB580688FBD0895813049F028F08230E1
:1006500061F0833069F008958FB58F7E02C08FB549
:1006600080618FBD8FB58F7D08C08FB58F7E02C032
:100670008FB580618FBD8FB580628FBD08951F9249
:100680000F920FB60F9211242F933F934F935F93C6
:100690006F937F938F939F93AF93BF93EF93FF934A
:1006A000E091AB00F091AC00309709F00995FF9113
:1006B000EF91BF91AF919F918F917F916F915F91DA
:1006C0004F913F912F910F900FBE0F901F90189553
:1006D0001F920F920FB60F9211242F933F934F93B7
:1006E0005F936F937F938F939F93AF93BF93EF939A
:1006F000FF93E091A900F091AA00309709F00995C5
:10070000FF91EF91BF91AF919F918F917F916F91E9
:100710005F914F913F912F910F900FBE0F901F90BF
:1007200018951F920F920FB60F9211242F933F939B
:100730004F935F936F937F938F939F93AF93BF93E9
:10074000EF93FF93E091A700F091A800309709F094
:100750000995FF91EF91BF91AF919F918F917F91FB
:100760006F915F914F913F912F910F900FBE0F901E
:100770001F9018951F920F920FB60F9211242F936E
:100780003F934F935F936F937F938F939F93AF9319
:10079000BF93EF93FF93E091A500F091A6003097EF
:1007A00009F00995FF91EF91BF91AF919F918F91C2
:1007B0007F916F915F914F913F912F910F900FBE5D
:0A07C0000F901F901895F894FFCFDA
:1007CA00FFFFFFFF000000FF000000FFFFFF00FF28
:1007DA0000FF00FFFF99FFFFFF8000FF3399993365
:1007EA00FFFF007F0100000000000001000002007E
:1007FA0000000000000000000000000000000202EB
:04080A0000000000EA
:00000001FF
